:100000000C9446000C9465000C9465000C946500FB
:100010000C9465000C9465000C9465000C946500CC
:100020000C9465000C9465000C9465000C946500BC
:100030000C9465000C9465000C9465000C946500AC
:100040000C9465000C9465000C9465000C9465009C
:100050000C9465000C9465000C9465000C9465008C
:100060000C9465000C9465000C9465000C9465007C
:100070000C9465000C9465000C9465000C9465006C
:100080000C9465000C9465000C94650011241FBE4F
:10009000CFEFD0E4DEBFCDBF12E0A0E0B1E0EEEAEA
:1000A000F9E000E00BBF02C007900D92AE3EB10731
:1000B000D9F71AE0AEEEB2E001C01D92A43FB1073D
:1000C000E1F70E9455010C94D5040C940000CF93E5
:1000D000C82F29980E949C018C2F0E94AF01299A59
:1000E0000E949E01CF910895CF92DF92EF92FF92EE
:1000F0000F931F93CF93DF938C01299A0E949C0149
:10010000F80101900020E9F731977F01E01AF10A28
:10011000C0E0D0E025C0F801EC0FFD1F208133279F
:1001200027FD309520523109F901EE0FFF1FEE0F28
:10013000FF1FE20FF31FEC0DFD1DE050FF4F80810C
:100140000E94AF018FEFC81AD80A02C0C12CD12C6F
:1001500085E0C816D104FCF280E00E94AF01219630
:10016000CE15DF059CF30E949E01DF91CF911F9178
:100170000F91FF90EF90DF90CF90089528982FEF88
:1001800080E792E0215080409040E1F700C00000FD
:10019000289A08950E94BE0081E20E94670080ECC8
:1001A0000E94670087E00E94670083E10E94670069
:1001B00080E20E9467008CE00E9467000895CF9360
:1001C000C62F0E9467008C2F0E946700CF91089570
:1001D000CF93DF930E949C01299AC0E0D0E004C035
:1001E00080E00E94AF012196C83F81E0D807C4F3A8
:1001F00029980E949E01DF91CF9108950F931F933C
:10020000CF93DF938C010E949C01299AC0E0D0E03B
:1002100007C0F801EC0FFD1F80810E94AF012196FD
:10022000C83F81E0D807ACF329980E949E01DF9176
:10023000CF911F910F910895EAE7F0E08081806EE1
:10024000808308950895EF92FF920F931F93CF93A9
:10025000DF9300E010E01EC060917800709179009B
:10026000E801CC0FDD1FCC0FDD1FCE0182519D4F69
:100270007C0180E090E00E94B401F701608371830B
:1002800082839383CE50D94F188219821A821B829F
:100290000F5F1F4F0F3F1105F9F2F4F2DF91CF917D
:1002A0001F910F91FF90EF900895CF93DF93CDB7FB
:1002B000DEB7A8970FB6F894DEBF0FBECDBF0E9481
:1002C000A0010E94CA000E94E80060E880E40E9449
:1002D000DF008FEF8AB91BB80E941C012FEF82E567
:1002E00097E0215080409040E1F700C000000E945C
:1002F000E80060E880E40E94DF008091780090913F
:1003000079001F921F929F938F9380EE92E09F93AC
:100310008F931F9288E28F938E010F5F1F4F1F9361
:100320000F930E94F101C8010E9474000FB6F89467
:10033000DEBF0FBECDBFD2CF2C9808952C9A089562
:1003400083EB84B9289A26982C9A81E58CBD089570
:100350008FEF8EBD0DB407FEFDCF8EB508958EBD17
:100360000DB407FEFDCF0895E89409C097FB3EF455
:1003700090958095709561957F4F8F4F9F4F9923F2
:10038000A9F0F92F96E9BB279395F6958795779570
:100390006795B795F111F8CFFAF4BB0F11F460FF30
:1003A0001BC06F5F7F4F8F4F9F4F16C0882311F088
:1003B00096E911C0772321F09EE8872F762F05C09C
:1003C000662371F096E8862F70E060E02AF09A9537
:1003D000660F771F881FDAF7880F9695879597F92C
:1003E00008950F931F93CF93DF93CDB7DEB72E976A
:1003F0000FB6F894DEBF0FBECDBF0D891E898F8961
:10040000988D26E02C831A83098397FF02C080E031
:1004100090E801979E838D83AE01455E5F4F698DA5
:100420007A8DCE0101960E942E024D815E8157FD8C
:100430000AC02F813885421753070CF49A01F8013E
:10044000E20FF31F10822E960FB6F894DEBF0FBE98
:10045000CDBFDF91CF911F910F9108952F923F92C1
:100460004F925F926F927F928F929F92AF92BF92C4
:10047000CF92DF92EF92FF920F931F93CF93DF9370
:10048000CDB7DEB72C970FB6F894DEBF0FBECDBF49
:100490007C016B018A01FC0117821682838181FF36
:1004A000BDC1CE0101964C01F7019381F60193FD88
:1004B000859193FF81916F01882309F4ABC1853247
:1004C00039F493FD859193FF81916F01853229F471
:1004D000B70190E00E943F04E7CF512C312C20E07F
:1004E0002032A0F48B3269F030F4803259F083323C
:1004F00069F420612CC08D3239F0803339F42160E9
:1005000026C02260246023C0286021C027FD27C0A8
:1005100030ED380F3A3078F426FF06C0FAE05F9EDF
:10052000300D1124532E13C08AE0389E300D112453
:10053000332E20620CC08E3221F426FD6BC1206464
:1005400006C08C3611F4206802C0883641F4F601EA
:1005500093FD859193FF81916F018111C1CF982FF8
:100560009F7D9554933028F40C5F1F4FFFE3F98370
:100570000DC0833631F0833771F0833509F05BC0ED
:1005800022C0F801808189830E5F1F4F4424439469
:10059000512C540115C03801F2E06F0E711CF801A6
:1005A000A080B18026FF03C0652D70E002C06FEF10
:1005B0007FEFC5012C870E9434042C0183012C8518
:1005C0002F77222E17C03801F2E06F0E711CF80150
:1005D000A080B18026FF03C0652D70E002C06FEFE0
:1005E0007FEFC5012C870E9429042C012C852068EF
:1005F000222E830123FC1BC0832D90E04816590650
:10060000B0F4B70180E290E00E943F043A94F4CF46
:10061000F50127FC859127FE81915F01B70190E0EC
:100620000E943F0431103A94F1E04F1A51084114EE
:10063000510471F7E5C0843611F0893639F5F801B7
:1006400027FF07C060817181828193810C5F1F4FFA
:1006500008C060817181882777FD8095982F0E5F93
:100660001F4F2F76722E97FF09C090958095709539
:1006700061957F4F8F4F9F4F2068722E2AE030E0A8
:10068000A4010E947704A82EA81844C0853729F435
:100690002F7EB22E2AE030E025C0F22FF97FBF2E48
:1006A0008F36C1F018F4883579F0B4C0803719F06E
:1006B000883721F0AFC02F2F2061B22EB4FE0DC0BD
:1006C0008B2D8460B82E09C024FF0AC09F2F96602E
:1006D000B92E06C028E030E005C020E130E002C0BD
:1006E00020E132E0F801B7FE07C0608171818281AC
:1006F00093810C5F1F4F06C06081718180E090E0A4
:100700000E5F1F4FA4010E947704A82EA818FB2D8E
:10071000FF777F2E76FE0BC0372D3E7FA51450F459
:1007200074FE0AC072FC08C0372D3E7E05C0BA2C8C
:10073000372D03C0BA2C01C0B52C34FF0DC0FE010B
:10074000EA0DF11D8081803311F4397E09C032FF3A
:1007500006C0B394B39404C0832F867809F0B39491
:1007600033FD13C030FF06C05A2CB31418F4530CD9
:100770005B18B32CB31468F4B70180E290E03C87B7
:100780000E943F04B3943C85F5CFB31410F43B189A
:1007900001C0312C34FF12C0B70180E390E03C87E8
:1007A0000E943F043C8532FF17C031FD03C088E73B
:1007B00090E002C088E590E0B7010CC0832F8678F6
:1007C00059F031FF02C08BE201C080E237FD8DE2BB
:1007D000B70190E00E943F04A51438F4B70180E30C
:1007E00090E00E943F045A94F7CFAA94F401EA0DD6
:1007F000F11D8081B70190E00E943F04A110F5CF68
:10080000332009F451CEB70180E290E00E943F040A
:100810003A94F6CFF7018681978102C08FEF9FEF60
:100820002C960FB6F894DEBF0FBECDBFDF91CF91EF
:100830001F910F91FF90EF90DF90CF90BF90AF90FE
:100840009F908F907F906F905F904F903F902F90F0
:100850000895FC010590615070400110D8F7809513
:1008600090958E0F9F1F0895FC016150704001907C
:100870000110D8F7809590958E0F9F1F08950F93C4
:100880001F93CF93DF93FB01238121FD03C08FEFE3
:100890009FEF28C022FF16C04681578124813581F1
:1008A0004217530744F4A081B1819D012F5F3F4F50
:1008B000318320838C93268137812F5F3F4F37838D
:1008C000268310C0EB01092F182F0084F185E02D3D
:1008D0000995892BE1F68E819F8101969F838E83F6
:1008E000812F902FDF91CF911F910F910895FA01E1
:1008F000AA27283051F1203181F1E8946F936E7F5F
:100900006E5F7F4F8F4F9F4FAF4FB1E03ED0B4E04F
:100910003CD0670F781F891F9A1FA11D680F791F90
:100920008A1F911DA11D6A0F711D811D911DA11DA1
:1009300020D009F468943F912AE0269F11243019B1
:10094000305D3193DEF6CF010895462F4770405D4C
:100950004193B3E00FD0C9F7F6CF462F4F70405DFB
:100960004A3318F0495D31FD4052419302D0A9F756
:10097000EACFB4E0A6959795879577956795BA9550
:10098000C9F700976105710508959B01AC010A2E16
:1009900006945795479537952795BA95C9F7620FED
:0E09A000731F841F951FA01D0895F894FFCFAC
:1009AE00000000000000005F0000000700070014B8
:1009BE007F147F14242A7F2A122313086462364977
:1009CE005522500005030000001C22410000412268
:1009DE001C0014083E081408083E08080050300099
:1009EE0000080808080800606000002010080402D3
:1009FE003E5149453E00427F4000426151494621E9
:100A0E0041454B311814127F1027454545393C4A54
:100A1E0049493001710905033649494936064949A4
:100A2E00291E0036360000005636000008142241FA
:100A3E000014141414140041221408020151090662
:100A4E00324979413E7E1111117E7F494949363E28
:100A5E00414141227F4141221C7F494949417F0941
:100A6E000909013E4149497A7F0808087F00417F04
:100A7E0041002040413F017F081422417F40404009
:100A8E00407F020C027F7F0408107F3E4141413EB1
:100A9E007F090909063E4151215E7F091929464603
:100AAE004949493101017F01013F4040403F1F202C
:100ABE0040201F3F4038403F6314081463070870FE
:100ACE0008076151494543007F4141000204081067
:100ADE00200041417F00040201020440404040409A
:100AEE00000102040020545454787F48444438389E
:100AFE0044444420384444487F3854545418087EA3
:100B0E000901020C5252523E7F0804047800447DC3
:100B1E0040002040443D007F1028440000417F40AB
:100B2E00007C041804787C08040478384444443863
:100B3E007C14141408081414187C7C080404084847
:100B4E0054545420043F4440203C4040207C1C2000
:100B5E0040201C3C4030403C44281028440C50504F
:100B6E00503C4464544C44000836410000007F0061
:100B7E0000004136080010080810087846414678F3
:0E0B8E00616463206973202564203A29000009
:00000001FF
