:100000000C9455000C9474000C9474000C947400BF
:100010000C9474000C9474000C9474000C94740090
:100020000C9474000C9474000C9474000C94740080
:100030000C9474000C9477020C9474020C94740069
:100040000C9474000C9474000C9474000C94740060
:100050000C9474000C9474000C9474000C94740050
:100060000C9474000C9474000C9474000C94740040
:100070000C9474000C9474000C9474000C94740030
:100080000C9474000C9474000C94740005A84CCD6E
:10009000B2D44EB93836A9020C50B9918688083CC2
:1000A000A6AAAA2ABE000000803F11241FBECFEFDF
:1000B000D0E4DEBFCDBF12E0A0E0B1E0EEE3F3E1BB
:1000C00000E00BBF02C007900D92A43EB107D9F724
:1000D0001AE0A4EEB2E001C01D92A632B107E1F72A
:1000E0000E94A5020C949D090C940000CF93C82F88
:1000F00029980E943C048C2F0E944F04299A0E9448
:100100003E04CF910895CF92DF92EF92FF920F932A
:100110001F93CF93DF938C01299A0E943C04F8012E
:1001200001900020E9F731977F01E01AF10AC0E061
:10013000D0E025C0F801EC0FFD1F2081332727FDFB
:10014000309520523109F901EE0FFF1FEE0FFF1F0E
:10015000E20FF31FEC0DFD1DE050FF4F80810E9468
:100160004F048FEFC81AD80A02C0C12CD12C85E0E9
:10017000C816D104FCF280E00E944F042196CE15EF
:10018000DF059CF30E943E04DF91CF911F910F91F8
:10019000FF90EF90DF90CF90089528982FEF81EE99
:1001A00094E0215080409040E1F700C00000289A80
:1001B00008950E94CD0081E20E94760080EC0E94AA
:1001C000760087E00E94760083E10E94760080E25C
:1001D0000E9476008CE00E9476000895CF93C62F8F
:1001E0000E9476008C2F0E947600CF910895CF93C5
:1001F000DF930E943C04299AC0E0D0E004C080E074
:100200000E944F042196C83F81E0D807C4F3299883
:100210000E943E04DF91CF9108950F931F93CF93D7
:10022000DF938C010E943C04299AC0E0D0E007C013
:10023000F801EC0FFD1F80810E944F042196C83FFA
:1002400081E0D807ACF329980E943E04DF91CF915A
:100250001F910F9108952F923F924F925F926F924C
:100260007F928F929F92AF92BF92CF92DF92EF9246
:10027000FF920F931F93CF93DF93CDB7DEB72C97E9
:100280000FB6F894DEBF0FBECDBF1C013B0181E06D
:1002900090E08C0102C0000F111F4A95E2F71A830B
:1002A0000983B8016150710940E050E0E1E0F0E0FD
:1002B00078012BC0C701959587959A01280F391FA2
:1002C00062177307C4F39C01215031094223532361
:1002D000480F591FE417F507BCF4CF01880F991F89
:1002E0006101C80ED91ED6012D913C91CA01880F1B
:1002F000991F820D931DDC010D911C91D6010D9368
:100300001C93DC012D933C9331966E177F0794F676
:10031000E6E0F0E0F887EF8344244394512CBEC01C
:100320008201000F111F1C830B831E821D82A8C037
:100330008D819E810F8002C0880F991F0A94E2F779
:10034000FC01EE0FFF1FEB5BFA4FA080B180880F1E
:10035000991FFC01EB5FFA4F80809180919481940A
:100360009108B594A794959487948D819E819C87DC
:100370008B8779C0EB85FC85E40DF51DEE0FFF1F23
:100380007101EE0EFF1ED7014D915C9185011502A2
:10039000302D049F212D1403200D311D5003200DFD
:1003A000311D1124BF01660D771D7A876987DB0136
:1003B0006D917C9184011702902D069F812D16036B
:1003C000800D911D7003800D911D1124281B390B88
:1003D00085011702902D069F812D1603800D911D1A
:1003E0007003800D911D112484011502702D049F4E
:1003F000612D1403600D711D5003600D711D1124DA
:10040000860F971FAB85BC85AA0FBB1F81010A0F02
:100410001B1FF8016081718175956795A60DB71D49
:100420004D915C911197559547956B01C21AD30A6E
:10043000F701D182C0827A01E81AF90AE985FA85C2
:10044000F182E082260F371FF80131832083840F69
:10045000951F8D939C930B851C852B813C81020FEE
:10046000131F1C870B876B857C8589819A81681790
:1004700079070CF47FCFAD81BE811196BE83AD8329
:10048000ED81FE81E415F5050CF452CF0F8118853E
:100490000150110918870F834B805C8029813A81B4
:1004A000421653060CF43CCF2C960FB6F894DEBFE0
:1004B0000FBECDBFDF91CF911F910F91FF90EF90B5
:1004C000DF90CF90BF90AF909F908F907F906F9074
:1004D0005F904F903F902F90089580EE80937C0026
:1004E00087EC80937A0008957894889518951F92E8
:1004F0000F920FB60F9211240BB60F928F939F930A
:10050000EF93FF9380910405E091040581E08E0F45
:10051000809304058091790090E08C589109EE0F4A
:10052000FF0BEA5DF74F91838083EAE7F0E080817B
:1005300080648083FF91EF919F918F910F900BBE0C
:100540000F900FBE0F901F901895CF93DF93CDB7EC
:10055000DEB7C058D1090FB6F894DEBF0FBECDBFCD
:100560000E9440040E94D9000E94F70060E880E4E5
:100570000E94EE008FEF8AB91BB889E0809381005A
:1005800080ED97E0909389008093880087EB97E057
:1005900090938B0080938A0086E080936F000E9486
:1005A0006D02109204051092250700E010E084C04F
:1005B000B801882777FD8095982F0E9454056B011C
:1005C0007C0126E53EE049EC50E40E94E00520E095
:1005D00030E040E05CE30E94E0050E94430620E03A
:1005E00030E040E853E40E94E0050E9421059801B4
:1005F000220F331FF901EB5FFA4F71836083F9011A
:10060000EC5FFC4F1182108200321105F4F420E0FF
:1006100030E040E051E4C701B6010E94E00520E06F
:1006200030E04FE753E40E94B90420E030E040E8B6
:1006300053E40E94E0050E942105F801EE0FFF1F20
:10064000EB5DF94F7183608335C0C80180978134B9
:10065000910550F4F801EE0FFF1FEB5DF94F80E0BC
:1006600091E09183808326C0013611051CF1A7011A
:10067000960160E070E080E093E40E94540420E082
:1006800030E040E051E40E94E00520E030E04FE738
:1006900053E40E94B90420E030E040E853E40E94B3
:1006A000E0050E942105F801EE0FFF1FEB5DF94FF9
:1006B000718360830F5F1F4F003811050CF478CFF2
:1006C00080E090E005C0FC01EB5FF94F10820196DD
:1006D00080329105C4F3789483B7817F83BF83B759
:1006E000816083BF80E2E5E0F6E0A4EEB2E0019035
:1006F0000D928A95E1F780E8E4E0F3E0A4E0B4E04D
:1007000001900D928A95E1F780E8E6E2F8E0A6E232
:10071000B7E001900D928A95E1F720E030E022C029
:10072000C901880F991FFC01EA5DF84F4081518192
:1007300042955295507F5427407F5427DC01AB5D92
:10074000B94F6D917C915702902D469F812D560394
:10075000800D911D7403800D911D11249183808360
:100760002F5F3F4F20383105DCF247E050E064E076
:1007700074E086E297E00E942B0120E030E03AC06E
:10078000A901440F551FFA01EA5DF84F608171819C
:100790007702F02D669FE12D7603E00DF11D7603C3
:1007A000E00DF11D1124DA01AC5FBB4F6D917C911E
:1007B0007702902D669F812D7603800D911D760323
:1007C000800D911D11248E0F9F1FFA01EA5DF64FD7
:1007D00091838083F90133230CF43196F595E795E5
:1007E000FF27E7FDF095EC51FD4F9081890F808345
:1007F0002F5F3F4F203431050CF4C2CF2FEF81EE35
:1008000094E0215080409040E1F700C000000E9439
:10081000F70060E880E40E94EE0000E010E0E12CC8
:10082000F12C22C0F801EC51FD4F8081282F332795
:1008300027FD30953F938F9380EE92E09F938F93A7
:1008400021E030E02C0F3D1F2E0D3F1D3F932F93D5
:100850000E94C606E80EF91E0F5F1F4F0F900F9003
:100860000F900F900F900F9000321105DCF2CE0127
:1008700001960E94830036CF2C9808952C9A0895F3
:1008800083EB84B9289A26982C9A81E58CBD08952B
:100890008FEF8EBD0DB407FEFDCF8EB508958EBDD2
:1008A0000DB407FEFDCF08955058BB27AA270ED0E0
:1008B0004DC13ED130F043D120F031F49F3F11F4CF
:1008C0001EF433C10EF4E095E7FB29C1E92F4FD1A7
:1008D00080F3BA17620773078407950718F071F45D
:1008E0009EF567C10EF4E0950B2EBA2FA02D0B01DB
:1008F000B90190010C01CA01A0011124FF27591B65
:1009000099F0593F50F4503E68F11A16F040A22F6A
:10091000232F342F4427585FF3CF469537952795DB
:10092000A795F0405395C9F77EF41F16BA0B620BDA
:10093000730B840BBAF09150A1F0FF0FBB1F661F21
:10094000771F881FC2F70EC0BA0F621F731F841F64
:1009500048F4879577956795B795F7959E3F08F08A
:10096000B3CF9395880F08F09927EE0F9795879549
:1009700008950CD0EBC0E3D040F0DAD030F021F491
:100980005F3F19F0CCC0511115C1CFC0F0D098F322
:100990009923C9F35523B1F3951B550BBB27AA2700
:1009A00062177307840738F09F5F5F4F220F331F72
:1009B000441FAA1FA9F333D00E2E3AF0E0E830D03E
:1009C00091505040E695001CCAF729D0FE2F27D041
:1009D000660F771F881FBB1F261737074807AB070F
:1009E000B0E809F0BB0B802DBF01FF2793585F4F84
:1009F0002AF09E3F510568F092C0DCC05F3FECF3E7
:100A0000983EDCF3869577956795B795F7959F5F48
:100A1000C9F7880F911D9695879597F90895E1E09C
:100A2000660F771F881FBB1F621773078407BA07FB
:100A300020F0621B730B840BBA0BEE1F88F7E09556
:100A4000089504D06894B111B5C0089598D088F085
:100A50009F5790F0B92F9927B751A0F0D1F0660FAA
:100A6000771F881F991F1AF0BA95C9F712C0B130C5
:100A700081F09FD0B1E008959CC0672F782F882720
:100A8000B85F39F0B93FCCF3869577956795B39504
:100A9000D9F73EF490958095709561957F4F8F4F73
:100AA0009F4F0895E89409C097FB3EF49095809578
:100AB000709561957F4F8F4F9F4F9923A9F0F92F24
:100AC00096E9BB279395F695879577956795B795A2
:100AD000F111F8CFFAF4BB0F11F460FF1BC06F5F88
:100AE0007F4F8F4F9F4F16C0882311F096E911C09A
:100AF000772321F09EE8872F762F05C0662371F0BB
:100B000096E8862F70E060E02AF09A95660F771FCE
:100B1000881FDAF7880F9695879597F9089597F9C2
:100B20009F6780E870E060E008959FEF80EC089593
:100B300000240A94161617061806090608950024BC
:100B40000A9412161306140605060895092E039436
:100B5000000C11F4882352F0BB0F40F4BF2B11F4AA
:100B600060FF04C06F5F7F4F8F4F9F4F089557FD09
:100B70009058440F551F59F05F3F71F04795880F0B
:100B800097FB991F61F09F3F79F0879508951216A2
:100B900013061406551FF2CF4695F1DF08C016164E
:100BA00017061806991FF1CF8695710561050894FF
:100BB0000895E894BB2766277727CB0197F9089516
:100BC0000BD0C4CFB5DF28F0BADF18F0952309F0B9
:100BD000A6CFABCF1124EECFCADFA0F3959FD1F300
:100BE000950F50E0551F629FF001729FBB27F00DDB
:100BF000B11D639FAA27F00DB11DAA1F649F662730
:100C0000B00DA11D661F829F2227B00DA11D621F7E
:100C1000739FB00DA11D621F839FA00D611D221F38
:100C2000749F3327A00D611D231F849F600D211D1C
:100C3000822F762F6A2F11249F5750408AF0E1F0BF
:100C400088234AF0EE0FFF1FBB1F661F771F881F08
:100C500091505040A9F79E3F510570F060CFAACF48
:100C60005F3FECF3983EDCF3869577956795B795F3
:100C7000F795E7959F5FC1F7FE2B880F911D96951D
:100C8000879597F908959F9305D00F9007FCEE5F25
:100C900028C04BCF74DFE8F3E894E0E0BB279F5710
:100CA000F0F02AED3FE049EC06C0EE0FBB0F661FE7
:100CB000771F881F28F0B23A62077307840728F06D
:100CC000B25A620B730B840BE3959A9572F78038D6
:100CD00030F49A95BB0F661F771F881FD2F7904894
:100CE00013C0EF93E0FF06C0A2EA2AED3FE049EC13
:100CF0005FEBECDD2BDF0F90039401FC9058ECE8E8
:100D0000F0E00EC09F3F31F0915020F48795779529
:100D10006795B795880F911D9695879597F90895D2
:100D20009F938F937F936F93FF93EF939B01AC01FE
:100D300047DFEF91FF9105D02F913F914F915F9148
:100D40003FCFDF93CF931F930F93FF92EF92DF92EA
:100D50007B018C01689405C0DA2EEF013DDFFE01B6
:100D6000E894A5912591359145915591AEF3EF0108
:100D7000ADDDFE019701A801DA9479F7DF90EF90DD
:100D8000FF900F911F91CF91DF9108950F931F93C3
:100D9000CF93DF93CDB7DEB72E970FB6F894DEBFB3
:100DA0000FBECDBF0D891E8986E08C831A8309830F
:100DB0008FEF9FE79E838D83AE01475E5F4F6F8904
:100DC000788DCE0101960E94F6062F813885F801B4
:100DD000E20FF31F10822E960FB6F894DEBF0FBEFF
:100DE000CDBFDF91CF911F910F9108952F923F9228
:100DF0004F925F926F927F928F929F92AF92BF922B
:100E0000CF92DF92EF92FF920F931F93CF93DF93D6
:100E1000CDB7DEB72C970FB6F894DEBF0FBECDBFAF
:100E20007C016B018A01FC0117821682838181FF9C
:100E3000BDC1CE0101964C01F7019381F60193FDEE
:100E4000859193FF81916F01882309F4ABC18532AD
:100E500039F493FD859193FF81916F01853229F4D7
:100E6000B70190E00E940709E7CF512C312C20E018
:100E70002032A0F48B3269F030F4803259F08332A2
:100E800069F420612CC08D3239F0803339F421604F
:100E900026C02260246023C0286021C027FD27C00F
:100EA00030ED380F3A3078F426FF06C0FAE05F9E46
:100EB000300D1124532E13C08AE0389E300D1124BA
:100EC000332E20620CC08E3221F426FD6BC12064CB
:100ED00006C08C3611F4206802C0883641F4F60151
:100EE00093FD859193FF81916F018111C1CF982F5F
:100EF0009F7D9554933028F40C5F1F4FFFE3F983D7
:100F00000DC0833631F0833771F0833509F05BC053
:100F100022C0F801808189830E5F1F4F44244394CF
:100F2000512C540115C03801F2E06F0E711CF8010C
:100F3000A080B18026FF03C0652D70E002C06FEF76
:100F40007FEFC5012C870E94FC082C0183012C85B2
:100F50002F77222E17C03801F2E06F0E711CF801B6
:100F6000A080B18026FF03C0652D70E002C06FEF46
:100F70007FEFC5012C870E94F1082C012C85206889
:100F8000222E830123FC1BC0832D90E048165906B6
:100F9000B0F4B70180E290E00E9407093A94F4CFE0
:100FA000F50127FC859127FE81915F01B70190E053
:100FB0000E94070931103A94F1E04F1A5108411488
:100FC000510471F7E5C0843611F0893639F5F8011E
:100FD00027FF07C060817181828193810C5F1F4F61
:100FE00008C060817181882777FD8095982F0E5FFA
:100FF0001F4F2F76722E97FF09C0909580957095A0
:1010000061957F4F8F4F9F4F2068722E2AE030E00E
:10101000A4010E943F09A82EA81844C0853729F4CE
:101020002F7EB22E2AE030E025C0F22FF97FBF2EAE
:101030008F36C1F018F4883579F0B4C0803719F0D4
:10104000883721F0AFC02F2F2061B22EB4FE0DC023
:101050008B2D8460B82E09C024FF0AC09F2F966094
:10106000B92E06C028E030E005C020E130E002C023
:1010700020E132E0F801B7FE07C060817181828112
:1010800093810C5F1F4F06C06081718180E090E00A
:101090000E5F1F4FA4010E943F09A82EA818FB2D28
:1010A000FF777F2E76FE0BC0372D3E7FA51450F4C0
:1010B00074FE0AC072FC08C0372D3E7E05C0BA2CF3
:1010C000372D03C0BA2C01C0B52C34FF0DC0FE0172
:1010D000EA0DF11D8081803311F4397E09C032FFA1
:1010E00006C0B394B39404C0832F867809F0B394F8
:1010F00033FD13C030FF06C05A2CB31418F4530C40
:101100005B18B32CB31468F4B70180E290E03C871D
:101110000E940709B3943C85F5CFB31410F43B1833
:1011200001C0312C34FF12C0B70180E390E03C874E
:101130000E9407093C8532FF17C031FD03C088E7D4
:1011400090E002C088E590E0B7010CC0832F86785C
:1011500059F031FF02C08BE201C080E237FD8DE221
:10116000B70190E00E940709A51438F4B70180E3A5
:1011700090E00E9407095A94F7CFAA94F401EA0D6F
:10118000F11D8081B70190E00E940709A110F5CF01
:10119000332009F451CEB70180E290E00E940709A4
:1011A0003A94F6CFF7018681978102C08FEF9FEFC7
:1011B0002C960FB6F894DEBF0FBECDBFDF91CF9156
:1011C0001F910F91FF90EF90DF90CF90BF90AF9065
:1011D0009F908F907F906F905F904F903F902F9057
:1011E0000895FC010590615070400110D8F780957A
:1011F00090958E0F9F1F0895FC01615070400190E3
:101200000110D8F7809590958E0F9F1F08950F932A
:101210001F93CF93DF93FB01238121FD03C08FEF49
:101220009FEF28C022FF16C0468157812481358157
:101230004217530744F4A081B1819D012F5F3F4FB6
:10124000318320838C93268137812F5F3F4F3783F3
:10125000268310C0EB01092F182F0084F185E02DA3
:101260000995892BE1F68E819F8101969F838E835C
:10127000812F902FDF91CF911F910F910895FA0147
:10128000AA27283051F1203181F1E8946F936E7FC5
:101290006E5F7F4F8F4F9F4FAF4FB1E03ED0B4E0B6
:1012A0003CD0670F781F891F9A1FA11D680F791FF7
:1012B0008A1F911DA11D6A0F711D811D911DA11D08
:1012C00020D009F468943F912AE0269F1124301918
:1012D000305D3193DEF6CF010895462F4770405DB3
:1012E0004193B3E00FD0C9F7F6CF462F4F70405D62
:1012F0004A3318F0495D31FD4052419302D0A9F7BD
:10130000EACFB4E0A6959795879577956795BA95B6
:10131000C9F700976105710508959B01AC010A2E7C
:1013200006945795479537952795BA95C9F7620F53
:0E133000731F841F951FA01D0895F894FFCF12
:10133E00000000000000005F00000007000700141E
:10134E007F147F14242A7F2A1223130864623649DD
:10135E005522500005030000001C224100004122CE
:10136E001C0014083E081408083E080800503000FF
:10137E000008080808080060600000201008040239
:10138E003E5149453E00427F40004261514946214F
:10139E0041454B311814127F1027454545393C4ABB
:1013AE00494930017109050336494949360649490B
:1013BE00291E003636000000563600000814224161
:1013CE0000141414141400412214080201510906C9
:1013DE00324979413E7E1111117E7F494949363E8F
:1013EE00414141227F4141221C7F494949417F09A8
:1013FE000909013E4149497A7F0808087F00417F6B
:10140E0041002040413F017F081422417F4040406F
:10141E00407F020C027F7F0408107F3E4141413E17
:10142E007F090909063E4151215E7F091929464669
:10143E004949493101017F01013F4040403F1F2092
:10144E0040201F3F4038403F631408146307087064
:10145E0008076151494543007F41410002040810CD
:10146E00200041417F000402010204404040404000
:10147E00000102040020545454787F484444383804
:10148E0044444420384444487F3854545418087E09
:10149E000901020C5252523E7F0804047800447D2A
:1014AE0040002040443D007F1028440000417F4012
:1014BE00007C041804787C080404783844444438CA
:1014CE007C14141408081414187C7C0804040848AE
:1014DE0054545420043F4440203C4040207C1C2067
:1014EE0040201C3C4030403C44281028440C5050B6
:1014FE00503C4464544C44000836410000007F00C8
:10150E000000413608001008081008784641467859
:04151E002564200020
:00000001FF
